{
  "contractName": "DFcore",
  "abi": [
    {
      "constant": true,
      "inputs": [
        {
          "name": "",
          "type": "uint256"
        }
      ],
      "name": "PJs",
      "outputs": [
        {
          "name": "purpose",
          "type": "string"
        },
        {
          "name": "target",
          "type": "uint256"
        },
        {
          "name": "amount",
          "type": "uint256"
        },
        {
          "name": "limittime",
          "type": "uint256"
        }
      ],
      "payable": false,
      "stateMutability": "view",
      "type": "function"
    },
    {
      "constant": true,
      "inputs": [
        {
          "name": "",
          "type": "uint256"
        }
      ],
      "name": "PJToOwner",
      "outputs": [
        {
          "name": "",
          "type": "address"
        }
      ],
      "payable": false,
      "stateMutability": "view",
      "type": "function"
    },
    {
      "constant": false,
      "inputs": [],
      "name": "renounceOwnership",
      "outputs": [],
      "payable": false,
      "stateMutability": "nonpayable",
      "type": "function"
    },
    {
      "constant": true,
      "inputs": [],
      "name": "owner",
      "outputs": [
        {
          "name": "",
          "type": "address"
        }
      ],
      "payable": false,
      "stateMutability": "view",
      "type": "function"
    },
    {
      "constant": true,
      "inputs": [
        {
          "name": "",
          "type": "address"
        }
      ],
      "name": "ownerPJCount",
      "outputs": [
        {
          "name": "",
          "type": "uint256"
        }
      ],
      "payable": false,
      "stateMutability": "view",
      "type": "function"
    },
    {
      "constant": false,
      "inputs": [
        {
          "name": "_newOwner",
          "type": "address"
        }
      ],
      "name": "transferOwnership",
      "outputs": [],
      "payable": false,
      "stateMutability": "nonpayable",
      "type": "function"
    },
    {
      "anonymous": false,
      "inputs": [
        {
          "indexed": true,
          "name": "previousOwner",
          "type": "address"
        }
      ],
      "name": "OwnershipRenounced",
      "type": "event"
    },
    {
      "anonymous": false,
      "inputs": [
        {
          "indexed": true,
          "name": "previousOwner",
          "type": "address"
        },
        {
          "indexed": true,
          "name": "newOwner",
          "type": "address"
        }
      ],
      "name": "OwnershipTransferred",
      "type": "event"
    },
    {
      "constant": false,
      "inputs": [
        {
          "name": "_purpose",
          "type": "string"
        },
        {
          "name": "_target",
          "type": "uint256"
        }
      ],
      "name": "makePJ",
      "outputs": [],
      "payable": false,
      "stateMutability": "nonpayable",
      "type": "function"
    },
    {
      "constant": false,
      "inputs": [
        {
          "name": "_id",
          "type": "uint256"
        }
      ],
      "name": "deposit",
      "outputs": [],
      "payable": true,
      "stateMutability": "payable",
      "type": "function"
    },
    {
      "constant": false,
      "inputs": [
        {
          "name": "_id",
          "type": "uint256"
        }
      ],
      "name": "success_withdraw",
      "outputs": [],
      "payable": false,
      "stateMutability": "nonpayable",
      "type": "function"
    },
    {
      "constant": false,
      "inputs": [
        {
          "name": "_id",
          "type": "uint256"
        }
      ],
      "name": "failure_withdraw",
      "outputs": [],
      "payable": false,
      "stateMutability": "nonpayable",
      "type": "function"
    },
    {
      "constant": true,
      "inputs": [
        {
          "name": "_owner",
          "type": "address"
        }
      ],
      "name": "getPJByOwner",
      "outputs": [
        {
          "name": "",
          "type": "uint256[]"
        }
      ],
      "payable": false,
      "stateMutability": "view",
      "type": "function"
    },
    {
      "constant": true,
      "inputs": [
        {
          "name": "_id",
          "type": "uint256"
        }
      ],
      "name": "getPJInfo",
      "outputs": [
        {
          "name": "",
          "type": "string"
        },
        {
          "name": "",
          "type": "uint256"
        },
        {
          "name": "",
          "type": "uint256"
        },
        {
          "name": "",
          "type": "uint256"
        },
        {
          "name": "",
          "type": "address[]"
        }
      ],
      "payable": false,
      "stateMutability": "view",
      "type": "function"
    },
    {
      "constant": true,
      "inputs": [
        {
          "name": "_id",
          "type": "uint256"
        },
        {
          "name": "_address",
          "type": "address"
        }
      ],
      "name": "getPJFunds",
      "outputs": [
        {
          "name": "",
          "type": "uint256"
        }
      ],
      "payable": false,
      "stateMutability": "view",
      "type": "function"
    }
  ],
  "bytecode": "0x6080604052336000806101000a81548173ffffffffffffffffffffffffffffffffffffffff021916908373ffffffffffffffffffffffffffffffffffffffff160217905550611639806100536000396000f3006080604052600436106100c5576000357c0100000000000000000000000000000000000000000000000000000000900463ffffffff16806301fc65a2146100ca57806332d561b21461013d57806332fa0d97146101f8578063469b942b14610265578063715018a6146102c65780638da5cb5b146102dd57806395b7f70e1461033457806397435c1514610361578063a154f51014610464578063b6b55f25146104bb578063bf7102b7146104db578063ed695a5f14610508578063f2fde38b146105a0575b600080fd5b3480156100d657600080fd5b5061013b600480360381019080803590602001908201803590602001908080601f0160208091040260200160405190810160405280939291908181526020018383808284378201915050505050509192919290803590602001909291905050506105e3565b005b34801561014957600080fd5b506101686004803603810190808035906020019092919050505061074d565b6040518080602001858152602001848152602001838152602001828103825286818151815260200191508051906020019080838360005b838110156101ba57808201518184015260208101905061019f565b50505050905090810190601f1680156101e75780820380516001836020036101000a031916815260200191505b509550505050505060405180910390f35b34801561020457600080fd5b5061022360048036038101908080359060200190929190505050610824565b604051808273ffffffffffffffffffffffffffffffffffffffff1673ffffffffffffffffffffffffffffffffffffffff16815260200191505060405180910390f35b34801561027157600080fd5b506102b060048036038101908080359060200190929190803573ffffffffffffffffffffffffffffffffffffffff169060200190929190505050610857565b6040518082815260200191505060405180910390f35b3480156102d257600080fd5b506102db6108bf565b005b3480156102e957600080fd5b506102f26109c1565b604051808273ffffffffffffffffffffffffffffffffffffffff1673ffffffffffffffffffffffffffffffffffffffff16815260200191505060405180910390f35b34801561034057600080fd5b5061035f600480360381019080803590602001909291905050506109e6565b005b34801561036d57600080fd5b5061038c60048036038101908080359060200190929190505050610ca0565b604051808060200186815260200185815260200184815260200180602001838103835288818151815260200191508051906020019080838360005b838110156103e25780820151818401526020810190506103c7565b50505050905090810190601f16801561040f5780820380516001836020036101000a031916815260200191505b50838103825284818151815260200191508051906020019060200280838360005b8381101561044b578082015181840152602081019050610430565b5050505090500197505050505050505060405180910390f35b34801561047057600080fd5b506104a5600480360381019080803573ffffffffffffffffffffffffffffffffffffffff169060200190929190505050610e83565b6040518082815260200191505060405180910390f35b6104d960048036038101908080359060200190929190505050610e9b565b005b3480156104e757600080fd5b5061050660048036038101908080359060200190929190505050611048565b005b34801561051457600080fd5b50610549600480360381019080803573ffffffffffffffffffffffffffffffffffffffff169060200190929190505050611270565b6040518080602001828103825283818151815260200191508051906020019060200280838360005b8381101561058c578082015181840152602081019050610571565b505050509050019250505060405180910390f35b3480156105ac57600080fd5b506105e1600480360381019080803573ffffffffffffffffffffffffffffffffffffffff16906020019092919050505061133a565b005b60006060600062278d004201925060018060a060405190810160405280888152602001878152602001600081526020018681526020018581525090806001815401808255809150509060018203906000526020600020906006020160009091929091909150600082015181600001908051906020019061066492919061149b565b50602082015181600101556040820151816002015560608201518160030155608082015181600401908051906020019061069f92919061151b565b505050039050336002600083815260200190815260200160002060006101000a81548173ffffffffffffffffffffffffffffffffffffffff021916908373ffffffffffffffffffffffffffffffffffffffff160217905550600360003373ffffffffffffffffffffffffffffffffffffffff1673ffffffffffffffffffffffffffffffffffffffff168152602001908152602001600020600081548092919060010191905055505050505050565b60018181548110151561075c57fe5b9060005260206000209060060201600091509050806000018054600181600116156101000203166002900480601f0160208091040260200160405190810160405280929190818152602001828054600181600116156101000203166002900480156108085780601f106107dd57610100808354040283529160200191610808565b820191906000526020600020905b8154815290600101906020018083116107eb57829003601f168201915b5050505050908060010154908060020154908060030154905084565b60026020528060005260406000206000915054906101000a900473ffffffffffffffffffffffffffffffffffffffff1681565b600060018381548110151561086857fe5b906000526020600020906006020160050160008373ffffffffffffffffffffffffffffffffffffffff1673ffffffffffffffffffffffffffffffffffffffff16815260200190815260200160002054905092915050565b6000809054906101000a900473ffffffffffffffffffffffffffffffffffffffff1673ffffffffffffffffffffffffffffffffffffffff163373ffffffffffffffffffffffffffffffffffffffff1614151561091a57600080fd5b6000809054906101000a900473ffffffffffffffffffffffffffffffffffffffff1673ffffffffffffffffffffffffffffffffffffffff167ff8df31144d9c2f0f6b59d69b8b98abd5459d07f2742c4df920b25aae33c6482060405160405180910390a260008060006101000a81548173ffffffffffffffffffffffffffffffffffffffff021916908373ffffffffffffffffffffffffffffffffffffffff160217905550565b6000809054906101000a900473ffffffffffffffffffffffffffffffffffffffff1681565b6000816002600082815260200190815260200160002060009054906101000a900473ffffffffffffffffffffffffffffffffffffffff1673ffffffffffffffffffffffffffffffffffffffff163373ffffffffffffffffffffffffffffffffffffffff16141515610a5657600080fd5b600183815481101515610a6557fe5b906000526020600020906006020160010154600184815481101515610a8657fe5b90600052602060002090600602016002015410151515610aa557600080fd5b600183815481101515610ab457fe5b90600052602060002090600602016002015491506000600184815481101515610ad957fe5b906000526020600020906006020160020181905550600360006002600086815260200190815260200160002060009054906101000a900473ffffffffffffffffffffffffffffffffffffffff1673ffffffffffffffffffffffffffffffffffffffff1673ffffffffffffffffffffffffffffffffffffffff16815260200190815260200160002060008154809291906001900391905055506000809054906101000a900473ffffffffffffffffffffffffffffffffffffffff166002600085815260200190815260200160002060006101000a81548173ffffffffffffffffffffffffffffffffffffffff021916908373ffffffffffffffffffffffffffffffffffffffff160217905550600360008060009054906101000a900473ffffffffffffffffffffffffffffffffffffffff1673ffffffffffffffffffffffffffffffffffffffff1673ffffffffffffffffffffffffffffffffffffffff168152602001908152602001600020600081548092919060010191905055503373ffffffffffffffffffffffffffffffffffffffff166108fc839081150290604051600060405180830381858888f19350505050158015610c9a573d6000803e3d6000fd5b50505050565b606060008060006060600186815481101515610cb857fe5b9060005260206000209060060201600001600187815481101515610cd857fe5b906000526020600020906006020160010154600188815481101515610cf957fe5b906000526020600020906006020160020154600189815481101515610d1a57fe5b90600052602060002090600602016003015460018a815481101515610d3b57fe5b9060005260206000209060060201600401848054600181600116156101000203166002900480601f016020809104026020016040519081016040528092919081815260200182805460018160011615610100020316600290048015610de15780601f10610db657610100808354040283529160200191610de1565b820191906000526020600020905b815481529060010190602001808311610dc457829003601f168201915b5050505050945080805480602002602001604051908101604052809291908181526020018280548015610e6957602002820191906000526020600020905b8160009054906101000a900473ffffffffffffffffffffffffffffffffffffffff1673ffffffffffffffffffffffffffffffffffffffff1681526020019060010190808311610e1f575b505050505090509450945094509450945091939590929450565b60036020528060005260406000206000915090505481565b600181815481101515610eaa57fe5b906000526020600020906006020160010154600182815481101515610ecb57fe5b906000526020600020906006020160020154101515610ee957600080fd5b600181815481101515610ef857fe5b9060005260206000209060060201600301544211151515610f1857600080fd5b34600182815481101515610f2857fe5b90600052602060002090600602016002015401600182815481101515610f4a57fe5b906000526020600020906006020160020181905550600181815481101515610f6e57fe5b90600052602060002090600602016004013390806001815401808255809150509060018203906000526020600020016000909192909190916101000a81548173ffffffffffffffffffffffffffffffffffffffff021916908373ffffffffffffffffffffffffffffffffffffffff1602179055505034600182815481101515610ff357fe5b906000526020600020906006020160050160003373ffffffffffffffffffffffffffffffffffffffff1673ffffffffffffffffffffffffffffffffffffffff1681526020019081526020016000208190555050565b600080600060018481548110151561105c57fe5b9060005260206000209060060201600301544211151561107b57600080fd5b60018481548110151561108a57fe5b9060005260206000209060060201600101546001858154811015156110ab57fe5b9060005260206000209060060201600201541015156110c957600080fd5b600092505b6001848154811015156110dd57fe5b90600052602060002090600602016004018054905083101561126a5760018481548110151561110857fe5b90600052602060002090600602016004018381548110151561112657fe5b9060005260206000200160009054906101000a900473ffffffffffffffffffffffffffffffffffffffff16915060018481548110151561116257fe5b906000526020600020906006020160050160008373ffffffffffffffffffffffffffffffffffffffff1673ffffffffffffffffffffffffffffffffffffffff16815260200190815260200160002054905060006001858154811015156111c457fe5b906000526020600020906006020160050160008473ffffffffffffffffffffffffffffffffffffffff1673ffffffffffffffffffffffffffffffffffffffff168152602001908152602001600020819055508173ffffffffffffffffffffffffffffffffffffffff166108fc829081150290604051600060405180830381858888f1935050505015801561125c573d6000803e3d6000fd5b5082806001019350506110ce565b50505050565b606080600080600360008673ffffffffffffffffffffffffffffffffffffffff1673ffffffffffffffffffffffffffffffffffffffff168152602001908152602001600020546040519080825280602002602001820160405280156112e45781602001602082028038833980820191505090505b50925060009150600090505b60018054905081101561132f5780838381518110151561130c57fe5b9060200190602002018181525050818060010192505080806001019150506112f0565b829350505050919050565b6000809054906101000a900473ffffffffffffffffffffffffffffffffffffffff1673ffffffffffffffffffffffffffffffffffffffff163373ffffffffffffffffffffffffffffffffffffffff1614151561139557600080fd5b61139e816113a1565b50565b600073ffffffffffffffffffffffffffffffffffffffff168173ffffffffffffffffffffffffffffffffffffffff16141515156113dd57600080fd5b8073ffffffffffffffffffffffffffffffffffffffff166000809054906101000a900473ffffffffffffffffffffffffffffffffffffffff1673ffffffffffffffffffffffffffffffffffffffff167f8be0079c531659141344cd1fd0a4f28419497f9722a3daafe3b4186f6b6457e060405160405180910390a3806000806101000a81548173ffffffffffffffffffffffffffffffffffffffff021916908373ffffffffffffffffffffffffffffffffffffffff16021790555050565b828054600181600116156101000203166002900490600052602060002090601f016020900481019282601f106114dc57805160ff191683800117855561150a565b8280016001018555821561150a579182015b828111156115095782518255916020019190600101906114ee565b5b50905061151791906115a5565b5090565b828054828255906000526020600020908101928215611594579160200282015b828111156115935782518260006101000a81548173ffffffffffffffffffffffffffffffffffffffff021916908373ffffffffffffffffffffffffffffffffffffffff1602179055509160200191906001019061153b565b5b5090506115a191906115ca565b5090565b6115c791905b808211156115c35760008160009055506001016115ab565b5090565b90565b61160a91905b8082111561160657600081816101000a81549073ffffffffffffffffffffffffffffffffffffffff0219169055506001016115d0565b5090565b905600a165627a7a72305820dd5a8920e1364691c8a515d9127e9a490dffcaf0e024b823e993d2c48494b00a0029",
  "source": "pragma solidity ^0.4.23;\nimport \"zeppelin-solidity/contracts/ownership/Ownable.sol\";\n\ncontract DFcore is Ownable {\n\n  struct PJ {\n    string purpose;\n    uint target;\n    uint amount;\n    uint limittime;\n    address[] supportersArray;\n    mapping (address => uint) funds;  //支援者の誰がどれだけ投げてくれたのかを記録しておく\n  }\n\n  PJ[] public PJs;\n  mapping (uint => address) public PJToOwner;\n  mapping (address => uint) public ownerPJCount;\n\n  modifier onlyOwnerOf(uint _PJId) {\n    require(msg.sender == PJToOwner[_PJId]);\n    _;\n  }\n\n  function makePJ(string _purpose, uint _target) public {  // クラウドファンディングのETHを貯める箱を作る関数\n    uint _limittime = now + 30 days; //とりあえずデフォルトで期限を30日と設定\n    address[] memory _supportersArray;\n    uint id = PJs.push(PJ(_purpose,_target, 0, _limittime, _supportersArray)) - 1;\n    PJToOwner[id] = msg.sender;\n    ownerPJCount[msg.sender]++;\n  }\n\n  function deposit(uint _id) public payable { // 箱にETHを投げる関数\n    require(PJs[_id].amount < PJs[_id].target);\n    require(now <= PJs[_id].limittime);\n    PJs[_id].amount = PJs[_id].amount + msg.value;\n    PJs[_id].supportersArray.push(msg.sender);\n    PJs[_id].funds[msg.sender] = msg.value;\n  }\n\n  function success_withdraw(uint _id) public onlyOwnerOf(_id) {  // 箱の中が満額以上の時のみ、PJ製作者がのみが実行してお金を引き出すことができる\n    require(PJs[_id].amount >= PJs[_id].target);\n    uint nakami = PJs[_id].amount;\n    PJs[_id].amount = 0;\n    ownerPJCount[PJToOwner[_id]]--;\n    PJToOwner[_id] = owner; //ownerはコントラクト作成者\n    ownerPJCount[owner]++;\n    msg.sender.transfer(nakami);\n  }\n\n  function failure_withdraw(uint _id) public {  // 期限を超えて、目標額集まらなかった時に、貯めたお金を支援者に返金する\n    require(now > PJs[_id].limittime);\n    require(PJs[_id].amount < PJs[_id].target);\n    for (uint i = 0; i < PJs[_id].supportersArray.length; i++) {\n      address supporteraddress = PJs[_id].supportersArray[i];\n      uint siengaku = PJs[_id].funds[supporteraddress];\n      PJs[_id].funds[supporteraddress] = 0;\n      supporteraddress.transfer(siengaku);\n    }\n  }\n\n  function getPJByOwner(address _owner) external view returns(uint[]) {\n    uint[] memory result = new uint[](ownerPJCount[_owner]);\n    uint counter = 0;\n    for (uint i = 0; i < PJs.length; i++) {\n      result[counter] = i;\n      counter++;\n    }\n    return result;\n  }\n\n  function getPJInfo(uint _id) public view returns(string, uint256, uint256, uint256, address[]) {\n    return (PJs[_id].purpose, PJs[_id].target, PJs[_id].amount, PJs[_id].limittime, PJs[_id].supportersArray);\n  }\n\n  function getPJFunds(uint _id, address _address) public view returns(uint256) {\n    return (PJs[_id].funds[_address]);\n  }\n\n}\n",
  "sourcePath": "/Users/fujitatakuya/Desktop/core-contract/contracts/DFcore.sol",
  "compiler": {
    "name": "solc",
    "version": "0.4.24+commit.e67f0147.Emscripten.clang"
  },
  "schemaVersion": "2.0.1",
  "updatedAt": "2018-10-31T01:35:12.842Z"
}