{
  "contractName": "DFcore",
  "abi": [
    {
      "constant": true,
      "inputs": [
        {
          "name": "",
          "type": "uint256"
        }
      ],
      "name": "PJs",
      "outputs": [
        {
          "name": "title",
          "type": "string"
        },
        {
          "name": "goal",
          "type": "uint256"
        },
        {
          "name": "amount",
          "type": "uint256"
        },
        {
          "name": "limittime",
          "type": "uint256"
        }
      ],
      "payable": false,
      "stateMutability": "view",
      "type": "function"
    },
    {
      "constant": true,
      "inputs": [
        {
          "name": "",
          "type": "uint256"
        }
      ],
      "name": "PJToOwner",
      "outputs": [
        {
          "name": "",
          "type": "address"
        }
      ],
      "payable": false,
      "stateMutability": "view",
      "type": "function"
    },
    {
      "constant": false,
      "inputs": [],
      "name": "renounceOwnership",
      "outputs": [],
      "payable": false,
      "stateMutability": "nonpayable",
      "type": "function"
    },
    {
      "constant": true,
      "inputs": [],
      "name": "owner",
      "outputs": [
        {
          "name": "",
          "type": "address"
        }
      ],
      "payable": false,
      "stateMutability": "view",
      "type": "function"
    },
    {
      "constant": true,
      "inputs": [],
      "name": "isOwner",
      "outputs": [
        {
          "name": "",
          "type": "bool"
        }
      ],
      "payable": false,
      "stateMutability": "view",
      "type": "function"
    },
    {
      "constant": true,
      "inputs": [
        {
          "name": "",
          "type": "address"
        }
      ],
      "name": "ownerPJCount",
      "outputs": [
        {
          "name": "",
          "type": "uint256"
        }
      ],
      "payable": false,
      "stateMutability": "view",
      "type": "function"
    },
    {
      "constant": false,
      "inputs": [
        {
          "name": "newOwner",
          "type": "address"
        }
      ],
      "name": "transferOwnership",
      "outputs": [],
      "payable": false,
      "stateMutability": "nonpayable",
      "type": "function"
    },
    {
      "anonymous": false,
      "inputs": [
        {
          "indexed": true,
          "name": "previousOwner",
          "type": "address"
        },
        {
          "indexed": true,
          "name": "newOwner",
          "type": "address"
        }
      ],
      "name": "OwnershipTransferred",
      "type": "event"
    },
    {
      "constant": false,
      "inputs": [
        {
          "name": "_title",
          "type": "string"
        },
        {
          "name": "_goal",
          "type": "uint256"
        }
      ],
      "name": "makePJ",
      "outputs": [],
      "payable": false,
      "stateMutability": "nonpayable",
      "type": "function"
    },
    {
      "constant": false,
      "inputs": [
        {
          "name": "_id",
          "type": "uint256"
        }
      ],
      "name": "deposit",
      "outputs": [],
      "payable": true,
      "stateMutability": "payable",
      "type": "function"
    },
    {
      "constant": false,
      "inputs": [
        {
          "name": "_id",
          "type": "uint256"
        }
      ],
      "name": "success_withdraw",
      "outputs": [],
      "payable": false,
      "stateMutability": "nonpayable",
      "type": "function"
    },
    {
      "constant": false,
      "inputs": [
        {
          "name": "_id",
          "type": "uint256"
        }
      ],
      "name": "failure_withdraw",
      "outputs": [],
      "payable": false,
      "stateMutability": "nonpayable",
      "type": "function"
    },
    {
      "constant": true,
      "inputs": [
        {
          "name": "_owner",
          "type": "address"
        }
      ],
      "name": "getPJByOwner",
      "outputs": [
        {
          "name": "",
          "type": "uint256[]"
        }
      ],
      "payable": false,
      "stateMutability": "view",
      "type": "function"
    },
    {
      "constant": true,
      "inputs": [
        {
          "name": "_id",
          "type": "uint256"
        }
      ],
      "name": "getPJInfo",
      "outputs": [
        {
          "name": "",
          "type": "string"
        },
        {
          "name": "",
          "type": "uint256"
        },
        {
          "name": "",
          "type": "uint256"
        },
        {
          "name": "",
          "type": "uint256"
        },
        {
          "name": "",
          "type": "address[]"
        }
      ],
      "payable": false,
      "stateMutability": "view",
      "type": "function"
    },
    {
      "constant": true,
      "inputs": [
        {
          "name": "_id",
          "type": "uint256"
        },
        {
          "name": "_address",
          "type": "address"
        }
      ],
      "name": "getPJFunds",
      "outputs": [
        {
          "name": "",
          "type": "uint256"
        }
      ],
      "payable": false,
      "stateMutability": "view",
      "type": "function"
    },
    {
      "constant": true,
      "inputs": [],
      "name": "getPJcount",
      "outputs": [
        {
          "name": "",
          "type": "uint256"
        }
      ],
      "payable": false,
      "stateMutability": "view",
      "type": "function"
    }
  ],
  "bytecode": "0x6080604052336000806101000a81548173ffffffffffffffffffffffffffffffffffffffff021916908373ffffffffffffffffffffffffffffffffffffffff1602179055506000809054906101000a900473ffffffffffffffffffffffffffffffffffffffff1673ffffffffffffffffffffffffffffffffffffffff16600073ffffffffffffffffffffffffffffffffffffffff167f8be0079c531659141344cd1fd0a4f28419497f9722a3daafe3b4186f6b6457e060405160405180910390a36116cb806100cf6000396000f3006080604052600436106100db576000357c0100000000000000000000000000000000000000000000000000000000900463ffffffff16806301fc65a2146100e057806332d561b21461015357806332fa0d971461020e578063469b942b1461027b5780636441fb14146102dc578063715018a6146103075780638da5cb5b1461031e5780638f32d59b1461037557806395b7f70e146103a457806397435c15146103d1578063a154f510146104d4578063b6b55f251461052b578063bf7102b71461054b578063ed695a5f14610578578063f2fde38b14610610575b600080fd5b3480156100ec57600080fd5b50610151600480360381019080803590602001908201803590602001908080601f016020809104026020016040519081016040528093929190818152602001838380828437820191505050505050919291929080359060200190929190505050610653565b005b34801561015f57600080fd5b5061017e600480360381019080803590602001909291905050506107bb565b6040518080602001858152602001848152602001838152602001828103825286818151815260200191508051906020019080838360005b838110156101d05780820151818401526020810190506101b5565b50505050905090810190601f1680156101fd5780820380516001836020036101000a031916815260200191505b509550505050505060405180910390f35b34801561021a57600080fd5b5061023960048036038101908080359060200190929190505050610892565b604051808273ffffffffffffffffffffffffffffffffffffffff1673ffffffffffffffffffffffffffffffffffffffff16815260200191505060405180910390f35b34801561028757600080fd5b506102c660048036038101908080359060200190929190803573ffffffffffffffffffffffffffffffffffffffff1690602001909291905050506108c5565b6040518082815260200191505060405180910390f35b3480156102e857600080fd5b506102f161092d565b6040518082815260200191505060405180910390f35b34801561031357600080fd5b5061031c61093a565b005b34801561032a57600080fd5b50610333610a0c565b604051808273ffffffffffffffffffffffffffffffffffffffff1673ffffffffffffffffffffffffffffffffffffffff16815260200191505060405180910390f35b34801561038157600080fd5b5061038a610a35565b604051808215151515815260200191505060405180910390f35b3480156103b057600080fd5b506103cf60048036038101908080359060200190929190505050610a8c565b005b3480156103dd57600080fd5b506103fc60048036038101908080359060200190929190505050610d12565b604051808060200186815260200185815260200184815260200180602001838103835288818151815260200191508051906020019080838360005b83811015610452578082015181840152602081019050610437565b50505050905090810190601f16801561047f5780820380516001836020036101000a031916815260200191505b50838103825284818151815260200191508051906020019060200280838360005b838110156104bb5780820151818401526020810190506104a0565b5050505090500197505050505050505060405180910390f35b3480156104e057600080fd5b50610515600480360381019080803573ffffffffffffffffffffffffffffffffffffffff169060200190929190505050610ef5565b6040518082815260200191505060405180910390f35b61054960048036038101908080359060200190929190505050610f0d565b005b34801561055757600080fd5b50610576600480360381019080803590602001909291905050506110ba565b005b34801561058457600080fd5b506105b9600480360381019080803573ffffffffffffffffffffffffffffffffffffffff1690602001909291905050506112e2565b6040518080602001828103825283818151815260200191508051906020019060200280838360005b838110156105fc5780820151818401526020810190506105e1565b505050509050019250505060405180910390f35b34801561061c57600080fd5b50610651600480360381019080803573ffffffffffffffffffffffffffffffffffffffff169060200190929190505050611414565b005b60006060600060054201925060018060a06040519081016040528088815260200187815260200160008152602001868152602001858152509080600181540180825580915050906001820390600052602060002090600602016000909192909190915060008201518160000190805190602001906106d292919061152d565b50602082015181600101556040820151816002015560608201518160030155608082015181600401908051906020019061070d9291906115ad565b505050039050336002600083815260200190815260200160002060006101000a81548173ffffffffffffffffffffffffffffffffffffffff021916908373ffffffffffffffffffffffffffffffffffffffff160217905550600360003373ffffffffffffffffffffffffffffffffffffffff1673ffffffffffffffffffffffffffffffffffffffff168152602001908152602001600020600081548092919060010191905055505050505050565b6001818154811015156107ca57fe5b9060005260206000209060060201600091509050806000018054600181600116156101000203166002900480601f0160208091040260200160405190810160405280929190818152602001828054600181600116156101000203166002900480156108765780601f1061084b57610100808354040283529160200191610876565b820191906000526020600020905b81548152906001019060200180831161085957829003601f168201915b5050505050908060010154908060020154908060030154905084565b60026020528060005260406000206000915054906101000a900473ffffffffffffffffffffffffffffffffffffffff1681565b60006001838154811015156108d657fe5b906000526020600020906006020160050160008373ffffffffffffffffffffffffffffffffffffffff1673ffffffffffffffffffffffffffffffffffffffff16815260200190815260200160002054905092915050565b6000600180549050905090565b610942610a35565b151561094d57600080fd5b600073ffffffffffffffffffffffffffffffffffffffff166000809054906101000a900473ffffffffffffffffffffffffffffffffffffffff1673ffffffffffffffffffffffffffffffffffffffff167f8be0079c531659141344cd1fd0a4f28419497f9722a3daafe3b4186f6b6457e060405160405180910390a360008060006101000a81548173ffffffffffffffffffffffffffffffffffffffff021916908373ffffffffffffffffffffffffffffffffffffffff160217905550565b60008060009054906101000a900473ffffffffffffffffffffffffffffffffffffffff16905090565b60008060009054906101000a900473ffffffffffffffffffffffffffffffffffffffff1673ffffffffffffffffffffffffffffffffffffffff163373ffffffffffffffffffffffffffffffffffffffff1614905090565b6000816002600082815260200190815260200160002060009054906101000a900473ffffffffffffffffffffffffffffffffffffffff1673ffffffffffffffffffffffffffffffffffffffff163373ffffffffffffffffffffffffffffffffffffffff16141515610afc57600080fd5b600183815481101515610b0b57fe5b906000526020600020906006020160010154600184815481101515610b2c57fe5b90600052602060002090600602016002015410151515610b4b57600080fd5b600183815481101515610b5a57fe5b90600052602060002090600602016002015491506000600184815481101515610b7f57fe5b906000526020600020906006020160020181905550600360006002600086815260200190815260200160002060009054906101000a900473ffffffffffffffffffffffffffffffffffffffff1673ffffffffffffffffffffffffffffffffffffffff1673ffffffffffffffffffffffffffffffffffffffff1681526020019081526020016000206000815480929190600190039190505550610c1f610a0c565b6002600085815260200190815260200160002060006101000a81548173ffffffffffffffffffffffffffffffffffffffff021916908373ffffffffffffffffffffffffffffffffffffffff16021790555060036000610c7c610a0c565b73ffffffffffffffffffffffffffffffffffffffff1673ffffffffffffffffffffffffffffffffffffffff168152602001908152602001600020600081548092919060010191905055503373ffffffffffffffffffffffffffffffffffffffff166108fc839081150290604051600060405180830381858888f19350505050158015610d0c573d6000803e3d6000fd5b50505050565b606060008060006060600186815481101515610d2a57fe5b9060005260206000209060060201600001600187815481101515610d4a57fe5b906000526020600020906006020160010154600188815481101515610d6b57fe5b906000526020600020906006020160020154600189815481101515610d8c57fe5b90600052602060002090600602016003015460018a815481101515610dad57fe5b9060005260206000209060060201600401848054600181600116156101000203166002900480601f016020809104026020016040519081016040528092919081815260200182805460018160011615610100020316600290048015610e535780601f10610e2857610100808354040283529160200191610e53565b820191906000526020600020905b815481529060010190602001808311610e3657829003601f168201915b5050505050945080805480602002602001604051908101604052809291908181526020018280548015610edb57602002820191906000526020600020905b8160009054906101000a900473ffffffffffffffffffffffffffffffffffffffff1673ffffffffffffffffffffffffffffffffffffffff1681526020019060010190808311610e91575b505050505090509450945094509450945091939590929450565b60036020528060005260406000206000915090505481565b600181815481101515610f1c57fe5b906000526020600020906006020160010154600182815481101515610f3d57fe5b906000526020600020906006020160020154101515610f5b57600080fd5b600181815481101515610f6a57fe5b9060005260206000209060060201600301544211151515610f8a57600080fd5b34600182815481101515610f9a57fe5b90600052602060002090600602016002015401600182815481101515610fbc57fe5b906000526020600020906006020160020181905550600181815481101515610fe057fe5b90600052602060002090600602016004013390806001815401808255809150509060018203906000526020600020016000909192909190916101000a81548173ffffffffffffffffffffffffffffffffffffffff021916908373ffffffffffffffffffffffffffffffffffffffff160217905550503460018281548110151561106557fe5b906000526020600020906006020160050160003373ffffffffffffffffffffffffffffffffffffffff1673ffffffffffffffffffffffffffffffffffffffff1681526020019081526020016000208190555050565b60008060006001848154811015156110ce57fe5b906000526020600020906006020160030154421115156110ed57600080fd5b6001848154811015156110fc57fe5b90600052602060002090600602016001015460018581548110151561111d57fe5b90600052602060002090600602016002015410151561113b57600080fd5b600092505b60018481548110151561114f57fe5b9060005260206000209060060201600401805490508310156112dc5760018481548110151561117a57fe5b90600052602060002090600602016004018381548110151561119857fe5b9060005260206000200160009054906101000a900473ffffffffffffffffffffffffffffffffffffffff1691506001848154811015156111d457fe5b906000526020600020906006020160050160008373ffffffffffffffffffffffffffffffffffffffff1673ffffffffffffffffffffffffffffffffffffffff168152602001908152602001600020549050600060018581548110151561123657fe5b906000526020600020906006020160050160008473ffffffffffffffffffffffffffffffffffffffff1673ffffffffffffffffffffffffffffffffffffffff168152602001908152602001600020819055508173ffffffffffffffffffffffffffffffffffffffff166108fc829081150290604051600060405180830381858888f193505050501580156112ce573d6000803e3d6000fd5b508280600101935050611140565b50505050565b606080600080600360008673ffffffffffffffffffffffffffffffffffffffff1673ffffffffffffffffffffffffffffffffffffffff168152602001908152602001600020546040519080825280602002602001820160405280156113565781602001602082028038833980820191505090505b50925060009150600090505b600180549050811015611409578473ffffffffffffffffffffffffffffffffffffffff166002600083815260200190815260200160002060009054906101000a900473ffffffffffffffffffffffffffffffffffffffff1673ffffffffffffffffffffffffffffffffffffffff1614156113fc578083838151811015156113e557fe5b906020019060200201818152505081806001019250505b8080600101915050611362565b829350505050919050565b61141c610a35565b151561142757600080fd5b61143081611433565b50565b600073ffffffffffffffffffffffffffffffffffffffff168173ffffffffffffffffffffffffffffffffffffffff161415151561146f57600080fd5b8073ffffffffffffffffffffffffffffffffffffffff166000809054906101000a900473ffffffffffffffffffffffffffffffffffffffff1673ffffffffffffffffffffffffffffffffffffffff167f8be0079c531659141344cd1fd0a4f28419497f9722a3daafe3b4186f6b6457e060405160405180910390a3806000806101000a81548173ffffffffffffffffffffffffffffffffffffffff021916908373ffffffffffffffffffffffffffffffffffffffff16021790555050565b828054600181600116156101000203166002900490600052602060002090601f016020900481019282601f1061156e57805160ff191683800117855561159c565b8280016001018555821561159c579182015b8281111561159b578251825591602001919060010190611580565b5b5090506115a99190611637565b5090565b828054828255906000526020600020908101928215611626579160200282015b828111156116255782518260006101000a81548173ffffffffffffffffffffffffffffffffffffffff021916908373ffffffffffffffffffffffffffffffffffffffff160217905550916020019190600101906115cd565b5b509050611633919061165c565b5090565b61165991905b8082111561165557600081600090555060010161163d565b5090565b90565b61169c91905b8082111561169857600081816101000a81549073ffffffffffffffffffffffffffffffffffffffff021916905550600101611662565b5090565b905600a165627a7a7230582093fde504acdab998e85ba7cd35aebe8974da6385e655e3943af15ae978d38fce0029",
  "source": "pragma solidity ^0.4.23;\nimport \"openzeppelin-solidity/contracts/ownership/Ownable.sol\";\n\ncontract DFcore is Ownable {\n\n  struct PJ {\n    string title;\n    uint goal;\n    uint amount;\n    uint limittime;\n    address[] supportersArray;\n    mapping (address => uint) funds;  //支援者の誰がどれだけ投げてくれたのかを記録しておく\n  }\n\n  PJ[] public PJs;\n  mapping (uint => address) public PJToOwner;\n  mapping (address => uint) public ownerPJCount;\n\n  modifier onlyOwnerOf(uint _PJId) {\n    require(msg.sender == PJToOwner[_PJId]);\n    _;\n  }\n\n  function makePJ(string _title, uint _goal) public {  // クラウドファンディングのETHを貯める箱を作る関数\n    /* uint _limittime = now + 30 days; //とりあえずデフォルトで期限を30日と設定 */\n    uint _limittime = now + 5; // truffleでtestするために5秒に設定してある。\n    address[] memory _supportersArray;\n    uint id = PJs.push(PJ(_title,_goal, 0, _limittime, _supportersArray)) - 1;\n    PJToOwner[id] = msg.sender;\n    ownerPJCount[msg.sender]++;\n  }\n\n  function deposit(uint _id) public payable { // 箱にETHを投げる関数\n    require(PJs[_id].amount < PJs[_id].goal);\n    require(now <= PJs[_id].limittime);\n    PJs[_id].amount = PJs[_id].amount + msg.value;\n    PJs[_id].supportersArray.push(msg.sender);\n    PJs[_id].funds[msg.sender] = msg.value;\n  }\n\n  function success_withdraw(uint _id) public onlyOwnerOf(_id) {  // 箱の中が満額以上の時のみ、PJ製作者がのみが実行してお金を引き出すことができる\n    require(PJs[_id].amount >= PJs[_id].goal);\n    uint nakami = PJs[_id].amount;\n    PJs[_id].amount = 0;\n    ownerPJCount[PJToOwner[_id]]--;\n    PJToOwner[_id] = owner(); //ownerはコントラクト作成者\n    ownerPJCount[owner()]++;\n    msg.sender.transfer(nakami);\n  }\n\n  function failure_withdraw(uint _id) public {  // 期限を超えて、目標額集まらなかった時に、貯めたお金を支援者に返金する\n    require(now > PJs[_id].limittime);\n    require(PJs[_id].amount < PJs[_id].goal);\n    for (uint i = 0; i < PJs[_id].supportersArray.length; i++) {\n      address supporteraddress = PJs[_id].supportersArray[i];\n      uint siengaku = PJs[_id].funds[supporteraddress];\n      PJs[_id].funds[supporteraddress] = 0;\n      supporteraddress.transfer(siengaku);\n    }\n  }\n\n  function getPJByOwner(address _owner) external view returns(uint[]) {\n    uint[] memory result = new uint[](ownerPJCount[_owner]);\n    uint counter = 0;\n    for (uint i = 0; i < PJs.length; i++) {\n      if (PJToOwner[i] == _owner) {\n        result[counter] = i;\n        counter++;\n      }\n    }\n    return result;\n  }\n\n  function getPJInfo(uint _id) public view returns(string, uint256, uint256, uint256, address[]) {\n    return (PJs[_id].title, PJs[_id].goal, PJs[_id].amount, PJs[_id].limittime, PJs[_id].supportersArray);\n  }\n\n  function getPJFunds(uint _id, address _address) public view returns(uint256) {\n    return (PJs[_id].funds[_address]);\n  }\n\n  function getPJcount() public view returns(uint256) {\n    return PJs.length;\n  }\n\n}\n",
  "sourcePath": "/Users/nakajo/work/core-contract/contracts/DFcore.sol",
  "compiler": {
    "name": "solc",
    "version": "0.4.24+commit.e67f0147.Emscripten.clang"
  },
  "schemaVersion": "2.0.1",
  "updatedAt": "2018-11-14T18:58:57.192Z"
}