{
  "contractName": "DFcore",
  "abi": [
    {
      "constant": false,
      "inputs": [],
      "name": "renounceOwnership",
      "outputs": [],
      "payable": false,
      "stateMutability": "nonpayable",
      "type": "function"
    },
    {
      "constant": true,
      "inputs": [],
      "name": "owner",
      "outputs": [
        {
          "name": "",
          "type": "address"
        }
      ],
      "payable": false,
      "stateMutability": "view",
      "type": "function"
    },
    {
      "constant": true,
      "inputs": [
        {
          "name": "",
          "type": "uint256"
        }
      ],
      "name": "BoxToOwner",
      "outputs": [
        {
          "name": "",
          "type": "address"
        }
      ],
      "payable": false,
      "stateMutability": "view",
      "type": "function"
    },
    {
      "constant": true,
      "inputs": [
        {
          "name": "",
          "type": "address"
        }
      ],
      "name": "ownerBoxCount",
      "outputs": [
        {
          "name": "",
          "type": "uint256"
        }
      ],
      "payable": false,
      "stateMutability": "view",
      "type": "function"
    },
    {
      "constant": true,
      "inputs": [
        {
          "name": "",
          "type": "uint256"
        }
      ],
      "name": "Boxs",
      "outputs": [
        {
          "name": "purpose",
          "type": "string"
        },
        {
          "name": "target",
          "type": "uint256"
        },
        {
          "name": "amount",
          "type": "uint256"
        },
        {
          "name": "limittime",
          "type": "uint256"
        }
      ],
      "payable": false,
      "stateMutability": "view",
      "type": "function"
    },
    {
      "constant": false,
      "inputs": [
        {
          "name": "_newOwner",
          "type": "address"
        }
      ],
      "name": "transferOwnership",
      "outputs": [],
      "payable": false,
      "stateMutability": "nonpayable",
      "type": "function"
    },
    {
      "anonymous": false,
      "inputs": [
        {
          "indexed": true,
          "name": "previousOwner",
          "type": "address"
        }
      ],
      "name": "OwnershipRenounced",
      "type": "event"
    },
    {
      "anonymous": false,
      "inputs": [
        {
          "indexed": true,
          "name": "previousOwner",
          "type": "address"
        },
        {
          "indexed": true,
          "name": "newOwner",
          "type": "address"
        }
      ],
      "name": "OwnershipTransferred",
      "type": "event"
    },
    {
      "constant": false,
      "inputs": [
        {
          "name": "_purpose",
          "type": "string"
        },
        {
          "name": "_target",
          "type": "uint256"
        }
      ],
      "name": "makeBox",
      "outputs": [],
      "payable": false,
      "stateMutability": "nonpayable",
      "type": "function"
    },
    {
      "constant": false,
      "inputs": [
        {
          "name": "_id",
          "type": "uint256"
        }
      ],
      "name": "deposit",
      "outputs": [],
      "payable": true,
      "stateMutability": "payable",
      "type": "function"
    },
    {
      "constant": false,
      "inputs": [
        {
          "name": "_id",
          "type": "uint256"
        }
      ],
      "name": "success_withdraw",
      "outputs": [],
      "payable": false,
      "stateMutability": "nonpayable",
      "type": "function"
    },
    {
      "constant": false,
      "inputs": [
        {
          "name": "_id",
          "type": "uint256"
        }
      ],
      "name": "failure_withdraw",
      "outputs": [],
      "payable": false,
      "stateMutability": "nonpayable",
      "type": "function"
    },
    {
      "constant": true,
      "inputs": [
        {
          "name": "_owner",
          "type": "address"
        }
      ],
      "name": "getBoxByOwner",
      "outputs": [
        {
          "name": "",
          "type": "uint256[]"
        }
      ],
      "payable": false,
      "stateMutability": "view",
      "type": "function"
    }
  ],
  "bytecode": "0x6080604052336000806101000a81548173ffffffffffffffffffffffffffffffffffffffff021916908373ffffffffffffffffffffffffffffffffffffffff160217905550611274806100536000396000f3006080604052600436106100af576000357c0100000000000000000000000000000000000000000000000000000000900463ffffffff1680635f4e521f146100b45780636458d54f14610127578063715018a6146101bf5780638da5cb5b146101d657806390a73c5c1461022d57806395b7f70e1461029a578063a92f0f21146102c7578063b6b55f251461031e578063bf7102b71461033e578063e243a03e1461036b578063f2fde38b14610426575b600080fd5b3480156100c057600080fd5b50610125600480360381019080803590602001908201803590602001908080601f016020809104026020016040519081016040528093929190818152602001838380828437820191505050505050919291929080359060200190929190505050610469565b005b34801561013357600080fd5b50610168600480360381019080803573ffffffffffffffffffffffffffffffffffffffff1690602001909291905050506105d3565b6040518080602001828103825283818151815260200191508051906020019060200280838360005b838110156101ab578082015181840152602081019050610190565b505050509050019250505060405180910390f35b3480156101cb57600080fd5b506101d461069d565b005b3480156101e257600080fd5b506101eb61079f565b604051808273ffffffffffffffffffffffffffffffffffffffff1673ffffffffffffffffffffffffffffffffffffffff16815260200191505060405180910390f35b34801561023957600080fd5b50610258600480360381019080803590602001909291905050506107c4565b604051808273ffffffffffffffffffffffffffffffffffffffff1673ffffffffffffffffffffffffffffffffffffffff16815260200191505060405180910390f35b3480156102a657600080fd5b506102c5600480360381019080803590602001909291905050506107f7565b005b3480156102d357600080fd5b50610308600480360381019080803573ffffffffffffffffffffffffffffffffffffffff169060200190929190505050610ab1565b6040518082815260200191505060405180910390f35b61033c60048036038101908080359060200190929190505050610ac9565b005b34801561034a57600080fd5b5061036960048036038101908080359060200190929190505050610c76565b005b34801561037757600080fd5b5061039660048036038101908080359060200190929190505050610e9e565b6040518080602001858152602001848152602001838152602001828103825286818151815260200191508051906020019080838360005b838110156103e85780820151818401526020810190506103cd565b50505050905090810190601f1680156104155780820380516001836020036101000a031916815260200191505b509550505050505060405180910390f35b34801561043257600080fd5b50610467600480360381019080803573ffffffffffffffffffffffffffffffffffffffff169060200190929190505050610f75565b005b60006060600062278d004201925060018060a06040519081016040528088815260200187815260200160008152602001868152602001858152509080600181540180825580915050906001820390600052602060002090600602016000909192909190915060008201518160000190805190602001906104ea9291906110d6565b506020820151816001015560408201518160020155606082015181600301556080820151816004019080519060200190610525929190611156565b505050039050336002600083815260200190815260200160002060006101000a81548173ffffffffffffffffffffffffffffffffffffffff021916908373ffffffffffffffffffffffffffffffffffffffff160217905550600360003373ffffffffffffffffffffffffffffffffffffffff1673ffffffffffffffffffffffffffffffffffffffff168152602001908152602001600020600081548092919060010191905055505050505050565b606080600080600360008673ffffffffffffffffffffffffffffffffffffffff1673ffffffffffffffffffffffffffffffffffffffff168152602001908152602001600020546040519080825280602002602001820160405280156106475781602001602082028038833980820191505090505b50925060009150600090505b6001805490508110156106925780838381518110151561066f57fe5b906020019060200201818152505081806001019250508080600101915050610653565b829350505050919050565b6000809054906101000a900473ffffffffffffffffffffffffffffffffffffffff1673ffffffffffffffffffffffffffffffffffffffff163373ffffffffffffffffffffffffffffffffffffffff161415156106f857600080fd5b6000809054906101000a900473ffffffffffffffffffffffffffffffffffffffff1673ffffffffffffffffffffffffffffffffffffffff167ff8df31144d9c2f0f6b59d69b8b98abd5459d07f2742c4df920b25aae33c6482060405160405180910390a260008060006101000a81548173ffffffffffffffffffffffffffffffffffffffff021916908373ffffffffffffffffffffffffffffffffffffffff160217905550565b6000809054906101000a900473ffffffffffffffffffffffffffffffffffffffff1681565b60026020528060005260406000206000915054906101000a900473ffffffffffffffffffffffffffffffffffffffff1681565b6000816002600082815260200190815260200160002060009054906101000a900473ffffffffffffffffffffffffffffffffffffffff1673ffffffffffffffffffffffffffffffffffffffff163373ffffffffffffffffffffffffffffffffffffffff1614151561086757600080fd5b60018381548110151561087657fe5b90600052602060002090600602016001015460018481548110151561089757fe5b906000526020600020906006020160020154101515156108b657600080fd5b6001838154811015156108c557fe5b906000526020600020906006020160020154915060006001848154811015156108ea57fe5b906000526020600020906006020160020181905550600360006002600086815260200190815260200160002060009054906101000a900473ffffffffffffffffffffffffffffffffffffffff1673ffffffffffffffffffffffffffffffffffffffff1673ffffffffffffffffffffffffffffffffffffffff16815260200190815260200160002060008154809291906001900391905055506000809054906101000a900473ffffffffffffffffffffffffffffffffffffffff166002600085815260200190815260200160002060006101000a81548173ffffffffffffffffffffffffffffffffffffffff021916908373ffffffffffffffffffffffffffffffffffffffff160217905550600360008060009054906101000a900473ffffffffffffffffffffffffffffffffffffffff1673ffffffffffffffffffffffffffffffffffffffff1673ffffffffffffffffffffffffffffffffffffffff168152602001908152602001600020600081548092919060010191905055503373ffffffffffffffffffffffffffffffffffffffff166108fc839081150290604051600060405180830381858888f19350505050158015610aab573d6000803e3d6000fd5b50505050565b60036020528060005260406000206000915090505481565b600181815481101515610ad857fe5b906000526020600020906006020160010154600182815481101515610af957fe5b906000526020600020906006020160020154101515610b1757600080fd5b600181815481101515610b2657fe5b9060005260206000209060060201600301544211151515610b4657600080fd5b34600182815481101515610b5657fe5b90600052602060002090600602016002015401600182815481101515610b7857fe5b906000526020600020906006020160020181905550600181815481101515610b9c57fe5b90600052602060002090600602016004013390806001815401808255809150509060018203906000526020600020016000909192909190916101000a81548173ffffffffffffffffffffffffffffffffffffffff021916908373ffffffffffffffffffffffffffffffffffffffff1602179055505034600182815481101515610c2157fe5b906000526020600020906006020160050160003373ffffffffffffffffffffffffffffffffffffffff1673ffffffffffffffffffffffffffffffffffffffff1681526020019081526020016000208190555050565b6000806000600184815481101515610c8a57fe5b90600052602060002090600602016003015442111515610ca957600080fd5b600184815481101515610cb857fe5b906000526020600020906006020160010154600185815481101515610cd957fe5b906000526020600020906006020160020154101515610cf757600080fd5b600092505b600184815481101515610d0b57fe5b906000526020600020906006020160040180549050831015610e9857600184815481101515610d3657fe5b906000526020600020906006020160040183815481101515610d5457fe5b9060005260206000200160009054906101000a900473ffffffffffffffffffffffffffffffffffffffff169150600184815481101515610d9057fe5b906000526020600020906006020160050160008373ffffffffffffffffffffffffffffffffffffffff1673ffffffffffffffffffffffffffffffffffffffff1681526020019081526020016000205490506000600185815481101515610df257fe5b906000526020600020906006020160050160008473ffffffffffffffffffffffffffffffffffffffff1673ffffffffffffffffffffffffffffffffffffffff168152602001908152602001600020819055508173ffffffffffffffffffffffffffffffffffffffff166108fc829081150290604051600060405180830381858888f19350505050158015610e8a573d6000803e3d6000fd5b508280600101935050610cfc565b50505050565b600181815481101515610ead57fe5b9060005260206000209060060201600091509050806000018054600181600116156101000203166002900480601f016020809104026020016040519081016040528092919081815260200182805460018160011615610100020316600290048015610f595780601f10610f2e57610100808354040283529160200191610f59565b820191906000526020600020905b815481529060010190602001808311610f3c57829003601f168201915b5050505050908060010154908060020154908060030154905084565b6000809054906101000a900473ffffffffffffffffffffffffffffffffffffffff1673ffffffffffffffffffffffffffffffffffffffff163373ffffffffffffffffffffffffffffffffffffffff16141515610fd057600080fd5b610fd981610fdc565b50565b600073ffffffffffffffffffffffffffffffffffffffff168173ffffffffffffffffffffffffffffffffffffffff161415151561101857600080fd5b8073ffffffffffffffffffffffffffffffffffffffff166000809054906101000a900473ffffffffffffffffffffffffffffffffffffffff1673ffffffffffffffffffffffffffffffffffffffff167f8be0079c531659141344cd1fd0a4f28419497f9722a3daafe3b4186f6b6457e060405160405180910390a3806000806101000a81548173ffffffffffffffffffffffffffffffffffffffff021916908373ffffffffffffffffffffffffffffffffffffffff16021790555050565b828054600181600116156101000203166002900490600052602060002090601f016020900481019282601f1061111757805160ff1916838001178555611145565b82800160010185558215611145579182015b82811115611144578251825591602001919060010190611129565b5b50905061115291906111e0565b5090565b8280548282559060005260206000209081019282156111cf579160200282015b828111156111ce5782518260006101000a81548173ffffffffffffffffffffffffffffffffffffffff021916908373ffffffffffffffffffffffffffffffffffffffff16021790555091602001919060010190611176565b5b5090506111dc9190611205565b5090565b61120291905b808211156111fe5760008160009055506001016111e6565b5090565b90565b61124591905b8082111561124157600081816101000a81549073ffffffffffffffffffffffffffffffffffffffff02191690555060010161120b565b5090565b905600a165627a7a723058201430bb51098c09314e0ee94e8222bd90db42c9fc4d519141dba9b4363ac4adb00029",
  "source": "pragma solidity ^0.4.23;\nimport \"../node_modules/zeppelin-solidity/contracts/ownership/Ownable.sol\";\n\ncontract DFcore is Ownable {\n\n  struct Box {\n    string purpose;\n    uint target;\n    uint amount;\n    uint limittime;\n    address[] supportersArray;\n    mapping (address => uint) funds;  //支援者の誰がどれだけ投げてくれたのかを記録しておく\n  }\n\n  Box[] public Boxs;\n  mapping (uint => address) public BoxToOwner;\n  mapping (address => uint) public ownerBoxCount;\n\n  modifier onlyOwnerOf(uint _BoxId) {\n    require(msg.sender == BoxToOwner[_BoxId]);\n    _;\n  }\n\n  function makeBox(string _purpose, uint _target) public {  // クラウドファンディングのETHを貯める箱を作る関数\n    uint _limittime = now + 30 days; //とりあえずデフォルトで期限を30日と設定\n    address[] memory _supportersArray;\n    uint id = Boxs.push(Box(_purpose,_target, 0, _limittime, _supportersArray)) - 1;\n    BoxToOwner[id] = msg.sender;\n    ownerBoxCount[msg.sender]++;\n  }\n\n  function deposit(uint _id) public payable { // 箱にETHを投げる関数\n    require(Boxs[_id].amount < Boxs[_id].target);\n    require(now <= Boxs[_id].limittime);\n    Boxs[_id].amount = Boxs[_id].amount + msg.value;\n    Boxs[_id].supportersArray.push(msg.sender);\n    Boxs[_id].funds[msg.sender] = msg.value;\n  }\n\n  function success_withdraw(uint _id) public onlyOwnerOf(_id) {  // 箱の中が満額以上の時のみ、Box製作者がのみが実行してお金を引き出すことができる\n    require(Boxs[_id].amount >= Boxs[_id].target);\n    uint nakami = Boxs[_id].amount;\n    Boxs[_id].amount = 0;\n    ownerBoxCount[BoxToOwner[_id]]--;\n    BoxToOwner[_id] = owner; //ownerはコントラクト作成者\n    ownerBoxCount[owner]++;\n    msg.sender.transfer(nakami);\n  }\n\n  function failure_withdraw(uint _id) public {  // 期限を超えて、目標額集まらなかった時に、貯めたお金を支援者に返金する\n    require(now > Boxs[_id].limittime);\n    require(Boxs[_id].amount < Boxs[_id].target);\n    for (uint i = 0; i < Boxs[_id].supportersArray.length; i++) {\n      address supporteraddress = Boxs[_id].supportersArray[i];\n      uint siengaku = Boxs[_id].funds[supporteraddress];\n      Boxs[_id].funds[supporteraddress] = 0;\n      supporteraddress.transfer(siengaku);\n    }\n  }\n\n  function getBoxByOwner(address _owner) external view returns(uint[]) {\n    uint[] memory result = new uint[](ownerBoxCount[_owner]);\n    uint counter = 0;\n    for (uint i = 0; i < Boxs.length; i++) {\n      result[counter] = i;\n      counter++;\n    }\n    return result;\n  }\n\n}\n",
  "sourcePath": "/Users/fujitatakuya/Desktop/core-contract/contracts/DFcore.sol",
  "compiler": {
    "name": "solc",
    "version": "0.4.24+commit.e67f0147.Emscripten.clang"
  },
  "schemaVersion": "2.0.1",
  "updatedAt": "2018-10-16T17:41:49.677Z"
}