{
  "contractName": "DFcore",
  "abi": [
    {
      "constant": false,
      "inputs": [],
      "name": "renounceOwnership",
      "outputs": [],
      "payable": false,
      "stateMutability": "nonpayable",
      "type": "function"
    },
    {
      "constant": true,
      "inputs": [],
      "name": "owner",
      "outputs": [
        {
          "name": "",
          "type": "address"
        }
      ],
      "payable": false,
      "stateMutability": "view",
      "type": "function"
    },
    {
      "constant": true,
      "inputs": [
        {
          "name": "",
          "type": "uint256"
        }
      ],
      "name": "BoxToOwner",
      "outputs": [
        {
          "name": "",
          "type": "address"
        }
      ],
      "payable": false,
      "stateMutability": "view",
      "type": "function"
    },
    {
      "constant": true,
      "inputs": [
        {
          "name": "",
          "type": "address"
        }
      ],
      "name": "ownerBoxCount",
      "outputs": [
        {
          "name": "",
          "type": "uint256"
        }
      ],
      "payable": false,
      "stateMutability": "view",
      "type": "function"
    },
    {
      "constant": true,
      "inputs": [
        {
          "name": "",
          "type": "uint256"
        }
      ],
      "name": "Boxs",
      "outputs": [
        {
          "name": "purpose",
          "type": "string"
        },
        {
          "name": "target",
          "type": "uint256"
        },
        {
          "name": "amount",
          "type": "uint256"
        },
        {
          "name": "limittime",
          "type": "uint256"
        }
      ],
      "payable": false,
      "stateMutability": "view",
      "type": "function"
    },
    {
      "constant": false,
      "inputs": [
        {
          "name": "_newOwner",
          "type": "address"
        }
      ],
      "name": "transferOwnership",
      "outputs": [],
      "payable": false,
      "stateMutability": "nonpayable",
      "type": "function"
    },
    {
      "anonymous": false,
      "inputs": [
        {
          "indexed": true,
          "name": "previousOwner",
          "type": "address"
        }
      ],
      "name": "OwnershipRenounced",
      "type": "event"
    },
    {
      "anonymous": false,
      "inputs": [
        {
          "indexed": true,
          "name": "previousOwner",
          "type": "address"
        },
        {
          "indexed": true,
          "name": "newOwner",
          "type": "address"
        }
      ],
      "name": "OwnershipTransferred",
      "type": "event"
    },
    {
      "constant": false,
      "inputs": [
        {
          "name": "_purpose",
          "type": "string"
        },
        {
          "name": "_target",
          "type": "uint256"
        }
      ],
      "name": "makeBox",
      "outputs": [],
      "payable": false,
      "stateMutability": "nonpayable",
      "type": "function"
    },
    {
      "constant": false,
      "inputs": [
        {
          "name": "_id",
          "type": "uint256"
        }
      ],
      "name": "deposit",
      "outputs": [],
      "payable": true,
      "stateMutability": "payable",
      "type": "function"
    },
    {
      "constant": false,
      "inputs": [
        {
          "name": "_id",
          "type": "uint256"
        }
      ],
      "name": "success_withdraw",
      "outputs": [],
      "payable": false,
      "stateMutability": "nonpayable",
      "type": "function"
    },
    {
      "constant": false,
      "inputs": [
        {
          "name": "_id",
          "type": "uint256"
        }
      ],
      "name": "failure_withdraw",
      "outputs": [],
      "payable": false,
      "stateMutability": "nonpayable",
      "type": "function"
    },
    {
      "constant": true,
      "inputs": [
        {
          "name": "_owner",
          "type": "address"
        }
      ],
      "name": "getBoxByOwner",
      "outputs": [
        {
          "name": "",
          "type": "uint256[]"
        }
      ],
      "payable": false,
      "stateMutability": "view",
      "type": "function"
    },
    {
      "constant": true,
      "inputs": [
        {
          "name": "_id",
          "type": "uint256"
        }
      ],
      "name": "getBox",
      "outputs": [
        {
          "name": "",
          "type": "string"
        }
      ],
      "payable": false,
      "stateMutability": "view",
      "type": "function"
    }
  ],
  "bytecode": "0x6080604052336000806101000a81548173ffffffffffffffffffffffffffffffffffffffff021916908373ffffffffffffffffffffffffffffffffffffffff1602179055506113e7806100536000396000f3006080604052600436106100ba576000357c0100000000000000000000000000000000000000000000000000000000900463ffffffff1680635f4e521f146100bf5780636458d54f14610132578063715018a6146101ca5780638da5cb5b146101e157806390a73c5c1461023857806395b7f70e146102a5578063a92f0f21146102d2578063b6b55f2514610329578063bf7102b714610349578063e243a03e14610376578063e3b14ad114610431578063f2fde38b146104d7575b600080fd5b3480156100cb57600080fd5b50610130600480360381019080803590602001908201803590602001908080601f01602080910402602001604051908101604052809392919081815260200183838082843782019150505050505091929192908035906020019092919050505061051a565b005b34801561013e57600080fd5b50610173600480360381019080803573ffffffffffffffffffffffffffffffffffffffff169060200190929190505050610684565b6040518080602001828103825283818151815260200191508051906020019060200280838360005b838110156101b657808201518184015260208101905061019b565b505050509050019250505060405180910390f35b3480156101d657600080fd5b506101df61074e565b005b3480156101ed57600080fd5b506101f6610850565b604051808273ffffffffffffffffffffffffffffffffffffffff1673ffffffffffffffffffffffffffffffffffffffff16815260200191505060405180910390f35b34801561024457600080fd5b5061026360048036038101908080359060200190929190505050610875565b604051808273ffffffffffffffffffffffffffffffffffffffff1673ffffffffffffffffffffffffffffffffffffffff16815260200191505060405180910390f35b3480156102b157600080fd5b506102d0600480360381019080803590602001909291905050506108a8565b005b3480156102de57600080fd5b50610313600480360381019080803573ffffffffffffffffffffffffffffffffffffffff169060200190929190505050610b62565b6040518082815260200191505060405180910390f35b61034760048036038101908080359060200190929190505050610b7a565b005b34801561035557600080fd5b5061037460048036038101908080359060200190929190505050610d27565b005b34801561038257600080fd5b506103a160048036038101908080359060200190929190505050610f4f565b6040518080602001858152602001848152602001838152602001828103825286818151815260200191508051906020019080838360005b838110156103f35780820151818401526020810190506103d8565b50505050905090810190601f1680156104205780820380516001836020036101000a031916815260200191505b509550505050505060405180910390f35b34801561043d57600080fd5b5061045c60048036038101908080359060200190929190505050611026565b6040518080602001828103825283818151815260200191508051906020019080838360005b8381101561049c578082015181840152602081019050610481565b50505050905090810190601f1680156104c95780820380516001836020036101000a031916815260200191505b509250505060405180910390f35b3480156104e357600080fd5b50610518600480360381019080803573ffffffffffffffffffffffffffffffffffffffff1690602001909291905050506110e8565b005b60006060600062278d004201925060018060a060405190810160405280888152602001878152602001600081526020018681526020018581525090806001815401808255809150509060018203906000526020600020906006020160009091929091909150600082015181600001908051906020019061059b929190611249565b5060208201518160010155604082015181600201556060820151816003015560808201518160040190805190602001906105d69291906112c9565b505050039050336002600083815260200190815260200160002060006101000a81548173ffffffffffffffffffffffffffffffffffffffff021916908373ffffffffffffffffffffffffffffffffffffffff160217905550600360003373ffffffffffffffffffffffffffffffffffffffff1673ffffffffffffffffffffffffffffffffffffffff168152602001908152602001600020600081548092919060010191905055505050505050565b606080600080600360008673ffffffffffffffffffffffffffffffffffffffff1673ffffffffffffffffffffffffffffffffffffffff168152602001908152602001600020546040519080825280602002602001820160405280156106f85781602001602082028038833980820191505090505b50925060009150600090505b6001805490508110156107435780838381518110151561072057fe5b906020019060200201818152505081806001019250508080600101915050610704565b829350505050919050565b6000809054906101000a900473ffffffffffffffffffffffffffffffffffffffff1673ffffffffffffffffffffffffffffffffffffffff163373ffffffffffffffffffffffffffffffffffffffff161415156107a957600080fd5b6000809054906101000a900473ffffffffffffffffffffffffffffffffffffffff1673ffffffffffffffffffffffffffffffffffffffff167ff8df31144d9c2f0f6b59d69b8b98abd5459d07f2742c4df920b25aae33c6482060405160405180910390a260008060006101000a81548173ffffffffffffffffffffffffffffffffffffffff021916908373ffffffffffffffffffffffffffffffffffffffff160217905550565b6000809054906101000a900473ffffffffffffffffffffffffffffffffffffffff1681565b60026020528060005260406000206000915054906101000a900473ffffffffffffffffffffffffffffffffffffffff1681565b6000816002600082815260200190815260200160002060009054906101000a900473ffffffffffffffffffffffffffffffffffffffff1673ffffffffffffffffffffffffffffffffffffffff163373ffffffffffffffffffffffffffffffffffffffff1614151561091857600080fd5b60018381548110151561092757fe5b90600052602060002090600602016001015460018481548110151561094857fe5b9060005260206000209060060201600201541015151561096757600080fd5b60018381548110151561097657fe5b9060005260206000209060060201600201549150600060018481548110151561099b57fe5b906000526020600020906006020160020181905550600360006002600086815260200190815260200160002060009054906101000a900473ffffffffffffffffffffffffffffffffffffffff1673ffffffffffffffffffffffffffffffffffffffff1673ffffffffffffffffffffffffffffffffffffffff16815260200190815260200160002060008154809291906001900391905055506000809054906101000a900473ffffffffffffffffffffffffffffffffffffffff166002600085815260200190815260200160002060006101000a81548173ffffffffffffffffffffffffffffffffffffffff021916908373ffffffffffffffffffffffffffffffffffffffff160217905550600360008060009054906101000a900473ffffffffffffffffffffffffffffffffffffffff1673ffffffffffffffffffffffffffffffffffffffff1673ffffffffffffffffffffffffffffffffffffffff168152602001908152602001600020600081548092919060010191905055503373ffffffffffffffffffffffffffffffffffffffff166108fc839081150290604051600060405180830381858888f19350505050158015610b5c573d6000803e3d6000fd5b50505050565b60036020528060005260406000206000915090505481565b600181815481101515610b8957fe5b906000526020600020906006020160010154600182815481101515610baa57fe5b906000526020600020906006020160020154101515610bc857600080fd5b600181815481101515610bd757fe5b9060005260206000209060060201600301544211151515610bf757600080fd5b34600182815481101515610c0757fe5b90600052602060002090600602016002015401600182815481101515610c2957fe5b906000526020600020906006020160020181905550600181815481101515610c4d57fe5b90600052602060002090600602016004013390806001815401808255809150509060018203906000526020600020016000909192909190916101000a81548173ffffffffffffffffffffffffffffffffffffffff021916908373ffffffffffffffffffffffffffffffffffffffff1602179055505034600182815481101515610cd257fe5b906000526020600020906006020160050160003373ffffffffffffffffffffffffffffffffffffffff1673ffffffffffffffffffffffffffffffffffffffff1681526020019081526020016000208190555050565b6000806000600184815481101515610d3b57fe5b90600052602060002090600602016003015442111515610d5a57600080fd5b600184815481101515610d6957fe5b906000526020600020906006020160010154600185815481101515610d8a57fe5b906000526020600020906006020160020154101515610da857600080fd5b600092505b600184815481101515610dbc57fe5b906000526020600020906006020160040180549050831015610f4957600184815481101515610de757fe5b906000526020600020906006020160040183815481101515610e0557fe5b9060005260206000200160009054906101000a900473ffffffffffffffffffffffffffffffffffffffff169150600184815481101515610e4157fe5b906000526020600020906006020160050160008373ffffffffffffffffffffffffffffffffffffffff1673ffffffffffffffffffffffffffffffffffffffff1681526020019081526020016000205490506000600185815481101515610ea357fe5b906000526020600020906006020160050160008473ffffffffffffffffffffffffffffffffffffffff1673ffffffffffffffffffffffffffffffffffffffff168152602001908152602001600020819055508173ffffffffffffffffffffffffffffffffffffffff166108fc829081150290604051600060405180830381858888f19350505050158015610f3b573d6000803e3d6000fd5b508280600101935050610dad565b50505050565b600181815481101515610f5e57fe5b9060005260206000209060060201600091509050806000018054600181600116156101000203166002900480601f01602080910402602001604051908101604052809291908181526020018280546001816001161561010002031660029004801561100a5780601f10610fdf5761010080835404028352916020019161100a565b820191906000526020600020905b815481529060010190602001808311610fed57829003601f168201915b5050505050908060010154908060020154908060030154905084565b606060018281548110151561103757fe5b90600052602060002090600602016000018054600181600116156101000203166002900480601f0160208091040260200160405190810160405280929190818152602001828054600181600116156101000203166002900480156110dc5780601f106110b1576101008083540402835291602001916110dc565b820191906000526020600020905b8154815290600101906020018083116110bf57829003601f168201915b50505050509050919050565b6000809054906101000a900473ffffffffffffffffffffffffffffffffffffffff1673ffffffffffffffffffffffffffffffffffffffff163373ffffffffffffffffffffffffffffffffffffffff1614151561114357600080fd5b61114c8161114f565b50565b600073ffffffffffffffffffffffffffffffffffffffff168173ffffffffffffffffffffffffffffffffffffffff161415151561118b57600080fd5b8073ffffffffffffffffffffffffffffffffffffffff166000809054906101000a900473ffffffffffffffffffffffffffffffffffffffff1673ffffffffffffffffffffffffffffffffffffffff167f8be0079c531659141344cd1fd0a4f28419497f9722a3daafe3b4186f6b6457e060405160405180910390a3806000806101000a81548173ffffffffffffffffffffffffffffffffffffffff021916908373ffffffffffffffffffffffffffffffffffffffff16021790555050565b828054600181600116156101000203166002900490600052602060002090601f016020900481019282601f1061128a57805160ff19168380011785556112b8565b828001600101855582156112b8579182015b828111156112b757825182559160200191906001019061129c565b5b5090506112c59190611353565b5090565b828054828255906000526020600020908101928215611342579160200282015b828111156113415782518260006101000a81548173ffffffffffffffffffffffffffffffffffffffff021916908373ffffffffffffffffffffffffffffffffffffffff160217905550916020019190600101906112e9565b5b50905061134f9190611378565b5090565b61137591905b80821115611371576000816000905550600101611359565b5090565b90565b6113b891905b808211156113b457600081816101000a81549073ffffffffffffffffffffffffffffffffffffffff02191690555060010161137e565b5090565b905600a165627a7a72305820bcca70ddeaadd4ddc6417feeb4bcf631c1eb1753ab9962ef391be37b5c0f13d30029",
  "source": "pragma solidity ^0.4.23;\nimport \"zeppelin-solidity/contracts/ownership/Ownable.sol\";\n\ncontract DFcore is Ownable {\n\n  struct Box {\n    string purpose;\n    uint target;\n    uint amount;\n    uint limittime;\n    address[] supportersArray;\n    mapping (address => uint) funds;  //支援者の誰がどれだけ投げてくれたのかを記録しておく\n  }\n\n  Box[] public Boxs;\n  mapping (uint => address) public BoxToOwner;\n  mapping (address => uint) public ownerBoxCount;\n\n  modifier onlyOwnerOf(uint _BoxId) {\n    require(msg.sender == BoxToOwner[_BoxId]);\n    _;\n  }\n\n  function makeBox(string _purpose, uint _target) public {  // クラウドファンディングのETHを貯める箱を作る関数\n    uint _limittime = now + 30 days; //とりあえずデフォルトで期限を30日と設定\n    address[] memory _supportersArray;\n    uint id = Boxs.push(Box(_purpose,_target, 0, _limittime, _supportersArray)) - 1;\n    BoxToOwner[id] = msg.sender;\n    ownerBoxCount[msg.sender]++;\n  }\n\n  function deposit(uint _id) public payable { // 箱にETHを投げる関数\n    require(Boxs[_id].amount < Boxs[_id].target);\n    require(now <= Boxs[_id].limittime);\n    Boxs[_id].amount = Boxs[_id].amount + msg.value;\n    Boxs[_id].supportersArray.push(msg.sender);\n    Boxs[_id].funds[msg.sender] = msg.value;\n  }\n\n  function success_withdraw(uint _id) public onlyOwnerOf(_id) {  // 箱の中が満額以上の時のみ、Box製作者がのみが実行してお金を引き出すことができる\n    require(Boxs[_id].amount >= Boxs[_id].target);\n    uint nakami = Boxs[_id].amount;\n    Boxs[_id].amount = 0;\n    ownerBoxCount[BoxToOwner[_id]]--;\n    BoxToOwner[_id] = owner; //ownerはコントラクト作成者\n    ownerBoxCount[owner]++;\n    msg.sender.transfer(nakami);\n  }\n\n  function failure_withdraw(uint _id) public {  // 期限を超えて、目標額集まらなかった時に、貯めたお金を支援者に返金する\n    require(now > Boxs[_id].limittime);\n    require(Boxs[_id].amount < Boxs[_id].target);\n    for (uint i = 0; i < Boxs[_id].supportersArray.length; i++) {\n      address supporteraddress = Boxs[_id].supportersArray[i];\n      uint siengaku = Boxs[_id].funds[supporteraddress];\n      Boxs[_id].funds[supporteraddress] = 0;\n      supporteraddress.transfer(siengaku);\n    }\n  }\n\n  function getBoxByOwner(address _owner) external view returns(uint[]) {\n    uint[] memory result = new uint[](ownerBoxCount[_owner]);\n    uint counter = 0;\n    for (uint i = 0; i < Boxs.length; i++) {\n      result[counter] = i;\n      counter++;\n    }\n    return result;\n  }\n\n  function getBox(uint _id) public view returns(string) {\n    return Boxs[_id].purpose;\n  }\n\n}\n",
  "sourcePath": "/Users/fujitatakuya/Desktop/core-contract/contracts/DFcore.sol",
  "compiler": {
    "name": "solc",
    "version": "0.4.24+commit.e67f0147.Emscripten.clang"
  },
  "schemaVersion": "2.0.1",
  "updatedAt": "2018-10-29T17:02:36.136Z"
}