{
  "contractName": "DFcore",
  "abi": [
    {
      "constant": true,
      "inputs": [
        {
          "name": "",
          "type": "uint256"
        }
      ],
      "name": "PJs",
      "outputs": [
        {
          "name": "title",
          "type": "string"
        },
        {
          "name": "target",
          "type": "uint256"
        },
        {
          "name": "amount",
          "type": "uint256"
        },
        {
          "name": "limittime",
          "type": "uint256"
        }
      ],
      "payable": false,
      "stateMutability": "view",
      "type": "function"
    },
    {
      "constant": true,
      "inputs": [
        {
          "name": "",
          "type": "uint256"
        }
      ],
      "name": "PJToOwner",
      "outputs": [
        {
          "name": "",
          "type": "address"
        }
      ],
      "payable": false,
      "stateMutability": "view",
      "type": "function"
    },
    {
      "constant": false,
      "inputs": [],
      "name": "renounceOwnership",
      "outputs": [],
      "payable": false,
      "stateMutability": "nonpayable",
      "type": "function"
    },
    {
      "constant": true,
      "inputs": [],
      "name": "owner",
      "outputs": [
        {
          "name": "",
          "type": "address"
        }
      ],
      "payable": false,
      "stateMutability": "view",
      "type": "function"
    },
    {
      "constant": true,
      "inputs": [],
      "name": "isOwner",
      "outputs": [
        {
          "name": "",
          "type": "bool"
        }
      ],
      "payable": false,
      "stateMutability": "view",
      "type": "function"
    },
    {
      "constant": true,
      "inputs": [
        {
          "name": "",
          "type": "address"
        }
      ],
      "name": "ownerPJCount",
      "outputs": [
        {
          "name": "",
          "type": "uint256"
        }
      ],
      "payable": false,
      "stateMutability": "view",
      "type": "function"
    },
    {
      "constant": false,
      "inputs": [
        {
          "name": "newOwner",
          "type": "address"
        }
      ],
      "name": "transferOwnership",
      "outputs": [],
      "payable": false,
      "stateMutability": "nonpayable",
      "type": "function"
    },
    {
      "anonymous": false,
      "inputs": [
        {
          "indexed": true,
          "name": "previousOwner",
          "type": "address"
        },
        {
          "indexed": true,
          "name": "newOwner",
          "type": "address"
        }
      ],
      "name": "OwnershipTransferred",
      "type": "event"
    },
    {
      "constant": false,
      "inputs": [
        {
          "name": "_title",
          "type": "string"
        },
        {
          "name": "_target",
          "type": "uint256"
        }
      ],
      "name": "makePJ",
      "outputs": [],
      "payable": false,
      "stateMutability": "nonpayable",
      "type": "function"
    },
    {
      "constant": false,
      "inputs": [
        {
          "name": "_id",
          "type": "uint256"
        }
      ],
      "name": "deposit",
      "outputs": [],
      "payable": true,
      "stateMutability": "payable",
      "type": "function"
    },
    {
      "constant": false,
      "inputs": [
        {
          "name": "_id",
          "type": "uint256"
        }
      ],
      "name": "success_withdraw",
      "outputs": [],
      "payable": false,
      "stateMutability": "nonpayable",
      "type": "function"
    },
    {
      "constant": false,
      "inputs": [
        {
          "name": "_id",
          "type": "uint256"
        }
      ],
      "name": "failure_withdraw",
      "outputs": [],
      "payable": false,
      "stateMutability": "nonpayable",
      "type": "function"
    },
    {
      "constant": true,
      "inputs": [
        {
          "name": "_owner",
          "type": "address"
        }
      ],
      "name": "getPJByOwner",
      "outputs": [
        {
          "name": "",
          "type": "uint256[]"
        }
      ],
      "payable": false,
      "stateMutability": "view",
      "type": "function"
    },
    {
      "constant": true,
      "inputs": [
        {
          "name": "_id",
          "type": "uint256"
        }
      ],
      "name": "getPJInfo",
      "outputs": [
        {
          "name": "",
          "type": "string"
        },
        {
          "name": "",
          "type": "uint256"
        },
        {
          "name": "",
          "type": "uint256"
        },
        {
          "name": "",
          "type": "uint256"
        },
        {
          "name": "",
          "type": "address[]"
        }
      ],
      "payable": false,
      "stateMutability": "view",
      "type": "function"
    },
    {
      "constant": true,
      "inputs": [
        {
          "name": "_id",
          "type": "uint256"
        },
        {
          "name": "_address",
          "type": "address"
        }
      ],
      "name": "getPJFunds",
      "outputs": [
        {
          "name": "",
          "type": "uint256"
        }
      ],
      "payable": false,
      "stateMutability": "view",
      "type": "function"
    }
  ],
  "bytecode": "0x6080604052336000806101000a81548173ffffffffffffffffffffffffffffffffffffffff021916908373ffffffffffffffffffffffffffffffffffffffff1602179055506000809054906101000a900473ffffffffffffffffffffffffffffffffffffffff1673ffffffffffffffffffffffffffffffffffffffff16600073ffffffffffffffffffffffffffffffffffffffff167f8be0079c531659141344cd1fd0a4f28419497f9722a3daafe3b4186f6b6457e060405160405180910390a3611620806100cf6000396000f3006080604052600436106100d0576000357c0100000000000000000000000000000000000000000000000000000000900463ffffffff16806301fc65a2146100d557806332d561b21461014857806332fa0d9714610203578063469b942b14610270578063715018a6146102d15780638da5cb5b146102e85780638f32d59b1461033f57806395b7f70e1461036e57806397435c151461039b578063a154f5101461049e578063b6b55f25146104f5578063bf7102b714610515578063ed695a5f14610542578063f2fde38b146105da575b600080fd5b3480156100e157600080fd5b50610146600480360381019080803590602001908201803590602001908080601f01602080910402602001604051908101604052809392919081815260200183838082843782019150505050505091929192908035906020019092919050505061061d565b005b34801561015457600080fd5b5061017360048036038101908080359060200190929190505050610785565b6040518080602001858152602001848152602001838152602001828103825286818151815260200191508051906020019080838360005b838110156101c55780820151818401526020810190506101aa565b50505050905090810190601f1680156101f25780820380516001836020036101000a031916815260200191505b509550505050505060405180910390f35b34801561020f57600080fd5b5061022e6004803603810190808035906020019092919050505061085c565b604051808273ffffffffffffffffffffffffffffffffffffffff1673ffffffffffffffffffffffffffffffffffffffff16815260200191505060405180910390f35b34801561027c57600080fd5b506102bb60048036038101908080359060200190929190803573ffffffffffffffffffffffffffffffffffffffff16906020019092919050505061088f565b6040518082815260200191505060405180910390f35b3480156102dd57600080fd5b506102e66108f7565b005b3480156102f457600080fd5b506102fd6109c9565b604051808273ffffffffffffffffffffffffffffffffffffffff1673ffffffffffffffffffffffffffffffffffffffff16815260200191505060405180910390f35b34801561034b57600080fd5b506103546109f2565b604051808215151515815260200191505060405180910390f35b34801561037a57600080fd5b5061039960048036038101908080359060200190929190505050610a49565b005b3480156103a757600080fd5b506103c660048036038101908080359060200190929190505050610ccf565b604051808060200186815260200185815260200184815260200180602001838103835288818151815260200191508051906020019080838360005b8381101561041c578082015181840152602081019050610401565b50505050905090810190601f1680156104495780820380516001836020036101000a031916815260200191505b50838103825284818151815260200191508051906020019060200280838360005b8381101561048557808201518184015260208101905061046a565b5050505090500197505050505050505060405180910390f35b3480156104aa57600080fd5b506104df600480360381019080803573ffffffffffffffffffffffffffffffffffffffff169060200190929190505050610eb2565b6040518082815260200191505060405180910390f35b61051360048036038101908080359060200190929190505050610eca565b005b34801561052157600080fd5b5061054060048036038101908080359060200190929190505050611077565b005b34801561054e57600080fd5b50610583600480360381019080803573ffffffffffffffffffffffffffffffffffffffff16906020019092919050505061129f565b6040518080602001828103825283818151815260200191508051906020019060200280838360005b838110156105c65780820151818401526020810190506105ab565b505050509050019250505060405180910390f35b3480156105e657600080fd5b5061061b600480360381019080803573ffffffffffffffffffffffffffffffffffffffff169060200190929190505050611369565b005b60006060600060054201925060018060a060405190810160405280888152602001878152602001600081526020018681526020018581525090806001815401808255809150509060018203906000526020600020906006020160009091929091909150600082015181600001908051906020019061069c929190611482565b5060208201518160010155604082015181600201556060820151816003015560808201518160040190805190602001906106d7929190611502565b505050039050336002600083815260200190815260200160002060006101000a81548173ffffffffffffffffffffffffffffffffffffffff021916908373ffffffffffffffffffffffffffffffffffffffff160217905550600360003373ffffffffffffffffffffffffffffffffffffffff1673ffffffffffffffffffffffffffffffffffffffff168152602001908152602001600020600081548092919060010191905055505050505050565b60018181548110151561079457fe5b9060005260206000209060060201600091509050806000018054600181600116156101000203166002900480601f0160208091040260200160405190810160405280929190818152602001828054600181600116156101000203166002900480156108405780601f1061081557610100808354040283529160200191610840565b820191906000526020600020905b81548152906001019060200180831161082357829003601f168201915b5050505050908060010154908060020154908060030154905084565b60026020528060005260406000206000915054906101000a900473ffffffffffffffffffffffffffffffffffffffff1681565b60006001838154811015156108a057fe5b906000526020600020906006020160050160008373ffffffffffffffffffffffffffffffffffffffff1673ffffffffffffffffffffffffffffffffffffffff16815260200190815260200160002054905092915050565b6108ff6109f2565b151561090a57600080fd5b600073ffffffffffffffffffffffffffffffffffffffff166000809054906101000a900473ffffffffffffffffffffffffffffffffffffffff1673ffffffffffffffffffffffffffffffffffffffff167f8be0079c531659141344cd1fd0a4f28419497f9722a3daafe3b4186f6b6457e060405160405180910390a360008060006101000a81548173ffffffffffffffffffffffffffffffffffffffff021916908373ffffffffffffffffffffffffffffffffffffffff160217905550565b60008060009054906101000a900473ffffffffffffffffffffffffffffffffffffffff16905090565b60008060009054906101000a900473ffffffffffffffffffffffffffffffffffffffff1673ffffffffffffffffffffffffffffffffffffffff163373ffffffffffffffffffffffffffffffffffffffff1614905090565b6000816002600082815260200190815260200160002060009054906101000a900473ffffffffffffffffffffffffffffffffffffffff1673ffffffffffffffffffffffffffffffffffffffff163373ffffffffffffffffffffffffffffffffffffffff16141515610ab957600080fd5b600183815481101515610ac857fe5b906000526020600020906006020160010154600184815481101515610ae957fe5b90600052602060002090600602016002015410151515610b0857600080fd5b600183815481101515610b1757fe5b90600052602060002090600602016002015491506000600184815481101515610b3c57fe5b906000526020600020906006020160020181905550600360006002600086815260200190815260200160002060009054906101000a900473ffffffffffffffffffffffffffffffffffffffff1673ffffffffffffffffffffffffffffffffffffffff1673ffffffffffffffffffffffffffffffffffffffff1681526020019081526020016000206000815480929190600190039190505550610bdc6109c9565b6002600085815260200190815260200160002060006101000a81548173ffffffffffffffffffffffffffffffffffffffff021916908373ffffffffffffffffffffffffffffffffffffffff16021790555060036000610c396109c9565b73ffffffffffffffffffffffffffffffffffffffff1673ffffffffffffffffffffffffffffffffffffffff168152602001908152602001600020600081548092919060010191905055503373ffffffffffffffffffffffffffffffffffffffff166108fc839081150290604051600060405180830381858888f19350505050158015610cc9573d6000803e3d6000fd5b50505050565b606060008060006060600186815481101515610ce757fe5b9060005260206000209060060201600001600187815481101515610d0757fe5b906000526020600020906006020160010154600188815481101515610d2857fe5b906000526020600020906006020160020154600189815481101515610d4957fe5b90600052602060002090600602016003015460018a815481101515610d6a57fe5b9060005260206000209060060201600401848054600181600116156101000203166002900480601f016020809104026020016040519081016040528092919081815260200182805460018160011615610100020316600290048015610e105780601f10610de557610100808354040283529160200191610e10565b820191906000526020600020905b815481529060010190602001808311610df357829003601f168201915b5050505050945080805480602002602001604051908101604052809291908181526020018280548015610e9857602002820191906000526020600020905b8160009054906101000a900473ffffffffffffffffffffffffffffffffffffffff1673ffffffffffffffffffffffffffffffffffffffff1681526020019060010190808311610e4e575b505050505090509450945094509450945091939590929450565b60036020528060005260406000206000915090505481565b600181815481101515610ed957fe5b906000526020600020906006020160010154600182815481101515610efa57fe5b906000526020600020906006020160020154101515610f1857600080fd5b600181815481101515610f2757fe5b9060005260206000209060060201600301544211151515610f4757600080fd5b34600182815481101515610f5757fe5b90600052602060002090600602016002015401600182815481101515610f7957fe5b906000526020600020906006020160020181905550600181815481101515610f9d57fe5b90600052602060002090600602016004013390806001815401808255809150509060018203906000526020600020016000909192909190916101000a81548173ffffffffffffffffffffffffffffffffffffffff021916908373ffffffffffffffffffffffffffffffffffffffff160217905550503460018281548110151561102257fe5b906000526020600020906006020160050160003373ffffffffffffffffffffffffffffffffffffffff1673ffffffffffffffffffffffffffffffffffffffff1681526020019081526020016000208190555050565b600080600060018481548110151561108b57fe5b906000526020600020906006020160030154421115156110aa57600080fd5b6001848154811015156110b957fe5b9060005260206000209060060201600101546001858154811015156110da57fe5b9060005260206000209060060201600201541015156110f857600080fd5b600092505b60018481548110151561110c57fe5b9060005260206000209060060201600401805490508310156112995760018481548110151561113757fe5b90600052602060002090600602016004018381548110151561115557fe5b9060005260206000200160009054906101000a900473ffffffffffffffffffffffffffffffffffffffff16915060018481548110151561119157fe5b906000526020600020906006020160050160008373ffffffffffffffffffffffffffffffffffffffff1673ffffffffffffffffffffffffffffffffffffffff16815260200190815260200160002054905060006001858154811015156111f357fe5b906000526020600020906006020160050160008473ffffffffffffffffffffffffffffffffffffffff1673ffffffffffffffffffffffffffffffffffffffff168152602001908152602001600020819055508173ffffffffffffffffffffffffffffffffffffffff166108fc829081150290604051600060405180830381858888f1935050505015801561128b573d6000803e3d6000fd5b5082806001019350506110fd565b50505050565b606080600080600360008673ffffffffffffffffffffffffffffffffffffffff1673ffffffffffffffffffffffffffffffffffffffff168152602001908152602001600020546040519080825280602002602001820160405280156113135781602001602082028038833980820191505090505b50925060009150600090505b60018054905081101561135e5780838381518110151561133b57fe5b90602001906020020181815250508180600101925050808060010191505061131f565b829350505050919050565b6113716109f2565b151561137c57600080fd5b61138581611388565b50565b600073ffffffffffffffffffffffffffffffffffffffff168173ffffffffffffffffffffffffffffffffffffffff16141515156113c457600080fd5b8073ffffffffffffffffffffffffffffffffffffffff166000809054906101000a900473ffffffffffffffffffffffffffffffffffffffff1673ffffffffffffffffffffffffffffffffffffffff167f8be0079c531659141344cd1fd0a4f28419497f9722a3daafe3b4186f6b6457e060405160405180910390a3806000806101000a81548173ffffffffffffffffffffffffffffffffffffffff021916908373ffffffffffffffffffffffffffffffffffffffff16021790555050565b828054600181600116156101000203166002900490600052602060002090601f016020900481019282601f106114c357805160ff19168380011785556114f1565b828001600101855582156114f1579182015b828111156114f05782518255916020019190600101906114d5565b5b5090506114fe919061158c565b5090565b82805482825590600052602060002090810192821561157b579160200282015b8281111561157a5782518260006101000a81548173ffffffffffffffffffffffffffffffffffffffff021916908373ffffffffffffffffffffffffffffffffffffffff16021790555091602001919060010190611522565b5b50905061158891906115b1565b5090565b6115ae91905b808211156115aa576000816000905550600101611592565b5090565b90565b6115f191905b808211156115ed57600081816101000a81549073ffffffffffffffffffffffffffffffffffffffff0219169055506001016115b7565b5090565b905600a165627a7a7230582007949b24776102bf3bd486211add29d8671ad4b00cbc18244972f19dc08df04d0029",
  "source": "pragma solidity ^0.4.23;\nimport \"openzeppelin-solidity/contracts/ownership/Ownable.sol\";\n\ncontract DFcore is Ownable {\n\n  struct PJ {\n    string title;\n    uint target;\n    uint amount;\n    uint limittime;\n    address[] supportersArray;\n    mapping (address => uint) funds;  //支援者の誰がどれだけ投げてくれたのかを記録しておく\n  }\n\n  PJ[] public PJs;\n  mapping (uint => address) public PJToOwner;\n  mapping (address => uint) public ownerPJCount;\n\n  modifier onlyOwnerOf(uint _PJId) {\n    require(msg.sender == PJToOwner[_PJId]);\n    _;\n  }\n\n  function makePJ(string _title, uint _target) public {  // クラウドファンディングのETHを貯める箱を作る関数\n    /* uint _limittime = now + 30 days; //とりあえずデフォルトで期限を30日と設定 */\n    uint _limittime = now + 5; // truffleでtestするために5秒に設定してある。\n    address[] memory _supportersArray;\n    uint id = PJs.push(PJ(_title,_target, 0, _limittime, _supportersArray)) - 1;\n    PJToOwner[id] = msg.sender;\n    ownerPJCount[msg.sender]++;\n  }\n\n  function deposit(uint _id) public payable { // 箱にETHを投げる関数\n    require(PJs[_id].amount < PJs[_id].target);\n    require(now <= PJs[_id].limittime);\n    PJs[_id].amount = PJs[_id].amount + msg.value;\n    PJs[_id].supportersArray.push(msg.sender);\n    PJs[_id].funds[msg.sender] = msg.value;\n  }\n\n  function success_withdraw(uint _id) public onlyOwnerOf(_id) {  // 箱の中が満額以上の時のみ、PJ製作者がのみが実行してお金を引き出すことができる\n    require(PJs[_id].amount >= PJs[_id].target);\n    uint nakami = PJs[_id].amount;\n    PJs[_id].amount = 0;\n    ownerPJCount[PJToOwner[_id]]--;\n    PJToOwner[_id] = owner(); //ownerはコントラクト作成者\n    ownerPJCount[owner()]++;\n    msg.sender.transfer(nakami);\n  }\n\n  function failure_withdraw(uint _id) public {  // 期限を超えて、目標額集まらなかった時に、貯めたお金を支援者に返金する\n    require(now > PJs[_id].limittime);\n    require(PJs[_id].amount < PJs[_id].target);\n    for (uint i = 0; i < PJs[_id].supportersArray.length; i++) {\n      address supporteraddress = PJs[_id].supportersArray[i];\n      uint siengaku = PJs[_id].funds[supporteraddress];\n      PJs[_id].funds[supporteraddress] = 0;\n      supporteraddress.transfer(siengaku);\n    }\n  }\n\n  function getPJByOwner(address _owner) external view returns(uint[]) {\n    uint[] memory result = new uint[](ownerPJCount[_owner]);\n    uint counter = 0;\n    for (uint i = 0; i < PJs.length; i++) {\n      result[counter] = i;\n      counter++;\n    }\n    return result;\n  }\n\n  function getPJInfo(uint _id) public view returns(string, uint256, uint256, uint256, address[]) {\n    return (PJs[_id].title, PJs[_id].target, PJs[_id].amount, PJs[_id].limittime, PJs[_id].supportersArray);\n  }\n\n  function getPJFunds(uint _id, address _address) public view returns(uint256) {\n    return (PJs[_id].funds[_address]);\n  }\n\n}\n",
  "sourcePath": "/Users/fujitatakuya/Desktop/core-contract/contracts/DFcore.sol",
  "compiler": {
    "name": "solc",
    "version": "0.4.24+commit.e67f0147.Emscripten.clang"
  },
  "schemaVersion": "2.0.1",
  "updatedAt": "2018-11-12T05:57:33.001Z"
}